{
  "contractName": "ProductContract",
  "abi": [
    {
      "inputs": [],
      "stateMutability": "nonpayable",
      "type": "constructor"
    },
    {
      "inputs": [],
      "name": "owner",
      "outputs": [
        {
          "internalType": "address",
          "name": "",
          "type": "address"
        }
      ],
      "stateMutability": "view",
      "type": "function"
    },
    {
      "inputs": [
        {
          "internalType": "string",
          "name": "",
          "type": "string"
        }
      ],
      "name": "productMap",
      "outputs": [
        {
          "internalType": "string",
          "name": "id",
          "type": "string"
        },
        {
          "internalType": "string",
          "name": "name",
          "type": "string"
        },
        {
          "internalType": "string",
          "name": "color",
          "type": "string"
        },
        {
          "internalType": "string",
          "name": "owner",
          "type": "string"
        },
        {
          "internalType": "uint8",
          "name": "status",
          "type": "uint8"
        }
      ],
      "stateMutability": "view",
      "type": "function"
    },
    {
      "inputs": [
        {
          "internalType": "string",
          "name": "_id",
          "type": "string"
        },
        {
          "internalType": "string",
          "name": "_name",
          "type": "string"
        },
        {
          "internalType": "string",
          "name": "_color",
          "type": "string"
        },
        {
          "internalType": "string",
          "name": "_owner",
          "type": "string"
        }
      ],
      "name": "addProduct",
      "outputs": [],
      "stateMutability": "nonpayable",
      "type": "function"
    },
    {
      "inputs": [],
      "name": "getAllProducts",
      "outputs": [
        {
          "components": [
            {
              "internalType": "string",
              "name": "id",
              "type": "string"
            },
            {
              "internalType": "string",
              "name": "name",
              "type": "string"
            },
            {
              "internalType": "string",
              "name": "color",
              "type": "string"
            },
            {
              "internalType": "string",
              "name": "owner",
              "type": "string"
            },
            {
              "internalType": "uint8",
              "name": "status",
              "type": "uint8"
            }
          ],
          "internalType": "struct ProductContract.Product[]",
          "name": "",
          "type": "tuple[]"
        }
      ],
      "stateMutability": "view",
      "type": "function"
    },
    {
      "inputs": [
        {
          "internalType": "string",
          "name": "_id",
          "type": "string"
        }
      ],
      "name": "isProductRegistered",
      "outputs": [
        {
          "internalType": "bool",
          "name": "",
          "type": "bool"
        }
      ],
      "stateMutability": "view",
      "type": "function"
    },
    {
      "inputs": [
        {
          "internalType": "string",
          "name": "_id",
          "type": "string"
        },
        {
          "internalType": "string",
          "name": "_owner",
          "type": "string"
        }
      ],
      "name": "changeOwner",
      "outputs": [
        {
          "internalType": "string",
          "name": "",
          "type": "string"
        }
      ],
      "stateMutability": "nonpayable",
      "type": "function"
    },
    {
      "inputs": [
        {
          "internalType": "string",
          "name": "productId",
          "type": "string"
        }
      ],
      "name": "getProductById",
      "outputs": [
        {
          "components": [
            {
              "internalType": "string",
              "name": "id",
              "type": "string"
            },
            {
              "internalType": "string",
              "name": "name",
              "type": "string"
            },
            {
              "internalType": "string",
              "name": "color",
              "type": "string"
            },
            {
              "internalType": "string",
              "name": "owner",
              "type": "string"
            },
            {
              "internalType": "uint8",
              "name": "status",
              "type": "uint8"
            }
          ],
          "internalType": "struct ProductContract.Product",
          "name": "productDetails",
          "type": "tuple"
        }
      ],
      "stateMutability": "view",
      "type": "function"
    },
    {
      "inputs": [],
      "name": "getProductCounts",
      "outputs": [
        {
          "internalType": "uint256",
          "name": "",
          "type": "uint256"
        }
      ],
      "stateMutability": "view",
      "type": "function"
    }
  ],
  "bytecode": "0x608060405234801561001057600080fd5b5033600260006101000a81548173ffffffffffffffffffffffffffffffffffffffff021916908373ffffffffffffffffffffffffffffffffffffffff160217905550611975806100616000396000f3fe608060405234801561001057600080fd5b50600436106100885760003560e01c80638da5cb5b1161005b5780638da5cb5b1461013f578063be837cdd1461015d578063d35e5d951461018d578063fde74e81146101ab57610088565b806302ee3a521461008d5780631e764d45146100ab5780632352d4aa146100db578063531c5de51461010b575b600080fd5b6100956101c7565b6040516100a29190610f44565b60405180910390f35b6100c560048036038101906100c091906110af565b61048b565b6040516100d29190611113565b60405180910390f35b6100f560048036038101906100f091906110af565b6104d8565b60405161010291906111b9565b60405180910390f35b610125600480360381019061012091906110af565b61077b565b604051610136959493929190611234565b60405180910390f35b6101476109f4565b60405161015491906112e4565b60405180910390f35b610177600480360381019061017291906112ff565b610a1a565b6040516101849190611377565b60405180910390f35b610195610a9b565b6040516101a291906113b2565b60405180910390f35b6101c560048036038101906101c091906113cd565b610aa7565b005b60606003805480602002602001604051908101604052809291908181526020016000905b8282101561048257838290600052602060002090600502016040518060a001604052908160008201805461021e906114d3565b80601f016020809104026020016040519081016040528092919081815260200182805461024a906114d3565b80156102975780601f1061026c57610100808354040283529160200191610297565b820191906000526020600020905b81548152906001019060200180831161027a57829003601f168201915b505050505081526020016001820180546102b0906114d3565b80601f01602080910402602001604051908101604052809291908181526020018280546102dc906114d3565b80156103295780601f106102fe57610100808354040283529160200191610329565b820191906000526020600020905b81548152906001019060200180831161030c57829003601f168201915b50505050508152602001600282018054610342906114d3565b80601f016020809104026020016040519081016040528092919081815260200182805461036e906114d3565b80156103bb5780601f10610390576101008083540402835291602001916103bb565b820191906000526020600020905b81548152906001019060200180831161039e57829003601f168201915b505050505081526020016003820180546103d4906114d3565b80601f0160208091040260200160405190810160405280929190818152602001828054610400906114d3565b801561044d5780601f106104225761010080835404028352916020019161044d565b820191906000526020600020905b81548152906001019060200180831161043057829003601f168201915b505050505081526020016004820160009054906101000a900460ff1660ff1660ff1681525050815260200190600101906101eb565b50505050905090565b60008060018360405161049e9190611540565b908152602001604051809103902060040160009054906101000a900460ff1660ff16146104ce57600190506104d3565b600090505b919050565b6104e0610d19565b60006001836040516104f29190611540565b90815260200160405180910390206040518060a001604052908160008201805461051b906114d3565b80601f0160208091040260200160405190810160405280929190818152602001828054610547906114d3565b80156105945780601f1061056957610100808354040283529160200191610594565b820191906000526020600020905b81548152906001019060200180831161057757829003601f168201915b505050505081526020016001820180546105ad906114d3565b80601f01602080910402602001604051908101604052809291908181526020018280546105d9906114d3565b80156106265780601f106105fb57610100808354040283529160200191610626565b820191906000526020600020905b81548152906001019060200180831161060957829003601f168201915b5050505050815260200160028201805461063f906114d3565b80601f016020809104026020016040519081016040528092919081815260200182805461066b906114d3565b80156106b85780601f1061068d576101008083540402835291602001916106b8565b820191906000526020600020905b81548152906001019060200180831161069b57829003601f168201915b505050505081526020016003820180546106d1906114d3565b80601f01602080910402602001604051908101604052809291908181526020018280546106fd906114d3565b801561074a5780601f1061071f5761010080835404028352916020019161074a565b820191906000526020600020905b81548152906001019060200180831161072d57829003601f168201915b505050505081526020016004820160009054906101000a900460ff1660ff1660ff1681525050905080915050919050565b6001818051602081018201805184825260208301602085012081835280955050505050506000915090508060000180546107b4906114d3565b80601f01602080910402602001604051908101604052809291908181526020018280546107e0906114d3565b801561082d5780601f106108025761010080835404028352916020019161082d565b820191906000526020600020905b81548152906001019060200180831161081057829003601f168201915b505050505090806001018054610842906114d3565b80601f016020809104026020016040519081016040528092919081815260200182805461086e906114d3565b80156108bb5780601f10610890576101008083540402835291602001916108bb565b820191906000526020600020905b81548152906001019060200180831161089e57829003601f168201915b5050505050908060020180546108d0906114d3565b80601f01602080910402602001604051908101604052809291908181526020018280546108fc906114d3565b80156109495780601f1061091e57610100808354040283529160200191610949565b820191906000526020600020905b81548152906001019060200180831161092c57829003601f168201915b50505050509080600301805461095e906114d3565b80601f016020809104026020016040519081016040528092919081815260200182805461098a906114d3565b80156109d75780601f106109ac576101008083540402835291602001916109d7565b820191906000526020600020905b8154815290600101906020018083116109ba57829003601f168201915b5050505050908060040160009054906101000a900460ff16905085565b600260009054906101000a900473ffffffffffffffffffffffffffffffffffffffff1681565b6060610a258361048b565b610a2e57600080fd5b81600184604051610a3f9190611540565b90815260200160405180910390206003019081610a5c9190611703565b506040518060400160405280600d81526020017f6f776e6572206368616e67656400000000000000000000000000000000000000815250905092915050565b60008080549050905090565b338073ffffffffffffffffffffffffffffffffffffffff16600260009054906101000a900473ffffffffffffffffffffffffffffffffffffffff1673ffffffffffffffffffffffffffffffffffffffff1614610b38576040517f08c379a0000000000000000000000000000000000000000000000000000000008152600401610b2f90611821565b60405180910390fd5b610b418561048b565b15610b4b57600080fd5b6040518060a00160405280868152602001858152602001848152602001838152602001600160ff16815250600186604051610b869190611540565b90815260200160405180910390206000820151816000019081610ba99190611703565b506020820151816001019081610bbf9190611703565b506040820151816002019081610bd59190611703565b506060820151816003019081610beb9190611703565b5060808201518160040160006101000a81548160ff021916908360ff160217905550905050600085908060018154018082558091505060019003906000526020600020016000909190919091509081610c449190611703565b506003600186604051610c579190611540565b9081526020016040518091039020908060018154018082558091505060019003906000526020600020906005020160009091909190915060008201816000019081610ca29190611857565b5060018201816001019081610cb79190611857565b5060028201816002019081610ccc9190611857565b5060038201816003019081610ce19190611857565b506004820160009054906101000a900460ff168160040160006101000a81548160ff021916908360ff16021790555050505050505050565b6040518060a0016040528060608152602001606081526020016060815260200160608152602001600060ff1681525090565b600081519050919050565b600082825260208201905092915050565b6000819050602082019050919050565b600081519050919050565b600082825260208201905092915050565b60005b83811015610db1578082015181840152602081019050610d96565b60008484015250505050565b6000601f19601f8301169050919050565b6000610dd982610d77565b610de38185610d82565b9350610df3818560208601610d93565b610dfc81610dbd565b840191505092915050565b600060ff82169050919050565b610e1d81610e07565b82525050565b600060a0830160008301518482036000860152610e408282610dce565b91505060208301518482036020860152610e5a8282610dce565b91505060408301518482036040860152610e748282610dce565b91505060608301518482036060860152610e8e8282610dce565b9150506080830151610ea36080860182610e14565b508091505092915050565b6000610eba8383610e23565b905092915050565b6000602082019050919050565b6000610eda82610d4b565b610ee48185610d56565b935083602082028501610ef685610d67565b8060005b85811015610f325784840389528151610f138582610eae565b9450610f1e83610ec2565b925060208a01995050600181019050610efa565b50829750879550505050505092915050565b60006020820190508181036000830152610f5e8184610ecf565b905092915050565b6000604051905090565b600080fd5b600080fd5b600080fd5b600080fd5b7f4e487b7100000000000000000000000000000000000000000000000000000000600052604160045260246000fd5b610fbc82610dbd565b810181811067ffffffffffffffff82111715610fdb57610fda610f84565b5b80604052505050565b6000610fee610f66565b9050610ffa8282610fb3565b919050565b600067ffffffffffffffff82111561101a57611019610f84565b5b61102382610dbd565b9050602081019050919050565b82818337600083830152505050565b600061105261104d84610fff565b610fe4565b90508281526020810184848401111561106e5761106d610f7f565b5b611079848285611030565b509392505050565b600082601f83011261109657611095610f7a565b5b81356110a684826020860161103f565b91505092915050565b6000602082840312156110c5576110c4610f70565b5b600082013567ffffffffffffffff8111156110e3576110e2610f75565b5b6110ef84828501611081565b91505092915050565b60008115159050919050565b61110d816110f8565b82525050565b60006020820190506111286000830184611104565b92915050565b600060a083016000830151848203600086015261114b8282610dce565b915050602083015184820360208601526111658282610dce565b9150506040830151848203604086015261117f8282610dce565b915050606083015184820360608601526111998282610dce565b91505060808301516111ae6080860182610e14565b508091505092915050565b600060208201905081810360008301526111d3818461112e565b905092915050565b600082825260208201905092915050565b60006111f782610d77565b61120181856111db565b9350611211818560208601610d93565b61121a81610dbd565b840191505092915050565b61122e81610e07565b82525050565b600060a082019050818103600083015261124e81886111ec565b9050818103602083015261126281876111ec565b9050818103604083015261127681866111ec565b9050818103606083015261128a81856111ec565b90506112996080830184611225565b9695505050505050565b600073ffffffffffffffffffffffffffffffffffffffff82169050919050565b60006112ce826112a3565b9050919050565b6112de816112c3565b82525050565b60006020820190506112f960008301846112d5565b92915050565b6000806040838503121561131657611315610f70565b5b600083013567ffffffffffffffff81111561133457611333610f75565b5b61134085828601611081565b925050602083013567ffffffffffffffff81111561136157611360610f75565b5b61136d85828601611081565b9150509250929050565b6000602082019050818103600083015261139181846111ec565b905092915050565b6000819050919050565b6113ac81611399565b82525050565b60006020820190506113c760008301846113a3565b92915050565b600080600080608085870312156113e7576113e6610f70565b5b600085013567ffffffffffffffff81111561140557611404610f75565b5b61141187828801611081565b945050602085013567ffffffffffffffff81111561143257611431610f75565b5b61143e87828801611081565b935050604085013567ffffffffffffffff81111561145f5761145e610f75565b5b61146b87828801611081565b925050606085013567ffffffffffffffff81111561148c5761148b610f75565b5b61149887828801611081565b91505092959194509250565b7f4e487b7100000000000000000000000000000000000000000000000000000000600052602260045260246000fd5b600060028204905060018216806114eb57607f821691505b6020821081036114fe576114fd6114a4565b5b50919050565b600081905092915050565b600061151a82610d77565b6115248185611504565b9350611534818560208601610d93565b80840191505092915050565b600061154c828461150f565b915081905092915050565b60008190508160005260206000209050919050565b60006020601f8301049050919050565b600082821b905092915050565b6000600883026115b97fffffffffffffffffffffffffffffffffffffffffffffffffffffffffffffffff8261157c565b6115c3868361157c565b95508019841693508086168417925050509392505050565b6000819050919050565b60006116006115fb6115f684611399565b6115db565b611399565b9050919050565b6000819050919050565b61161a836115e5565b61162e61162682611607565b848454611589565b825550505050565b600090565b611643611636565b61164e818484611611565b505050565b5b818110156116725761166760008261163b565b600181019050611654565b5050565b601f8211156116b75761168881611557565b6116918461156c565b810160208510156116a0578190505b6116b46116ac8561156c565b830182611653565b50505b505050565b600082821c905092915050565b60006116da600019846008026116bc565b1980831691505092915050565b60006116f383836116c9565b9150826002028217905092915050565b61170c82610d77565b67ffffffffffffffff81111561172557611724610f84565b5b61172f82546114d3565b61173a828285611676565b600060209050601f83116001811461176d576000841561175b578287015190505b61176585826116e7565b8655506117cd565b601f19841661177b86611557565b60005b828110156117a35784890151825560018201915060208501945060208101905061177e565b868310156117c057848901516117bc601f8916826116c9565b8355505b6001600288020188555050505b505050505050565b7f4e6f742061206f776e6572000000000000000000000000000000000000000000600082015250565b600061180b600b836111db565b9150611816826117d5565b602082019050919050565b6000602082019050818103600083015261183a816117fe565b9050919050565b600081549050611850816114d3565b9050919050565b81810361186557505061193d565b61186e82611841565b67ffffffffffffffff81111561188757611886610f84565b5b61189182546114d3565b61189c828285611676565b6000601f8311600181146118cb57600084156118b9578287015490505b6118c385826116e7565b865550611936565b601f1984166118d987611557565b96506118e486611557565b60005b8281101561190c578489015482556001820191506001850194506020810190506118e7565b868310156119295784890154611925601f8916826116c9565b8355505b6001600288020188555050505b5050505050505b56fea2646970667358221220231b2841d81b56960c84fe487c41eac03a6bf85cd880ccee969846b2a3a1585864736f6c63430008130033",
  "immutableReferences": {},
  "source": "// SPDX-License-Identifier: UNLICENSED\npragma solidity ^0.8.10;\n\ncontract ProductContract {\n    struct Product {\n        string id;\n        string name;\n        string color;\n        string owner;\n        uint8 status; //1-active,0-Inactive,\n    }\n\n    string[] ProductIdList;\n    mapping(string => Product) public productMap;\n    address public owner;\n    Product[] product;\n\n    constructor() {\n        owner = msg.sender;\n    }\n\n    modifier isOwner(address _owner) {\n        require(owner == _owner, \"Not a owner\");\n        _;\n    }\n\n    function addProduct(\n        string memory _id,\n        string memory _name,\n        string memory _color,\n        string memory _owner\n    ) public isOwner(msg.sender) {\n        require(!isProductRegistered(_id));\n        productMap[_id] = Product(_id, _name, _color, _owner, 1);\n        ProductIdList.push(_id);\n        product.push(productMap[_id]);\n    }\n\n    function getAllProducts() public view returns (Product[] memory) {\n        return product;\n    }\n\n    function isProductRegistered(string memory _id) public view returns (bool) {\n        if (productMap[_id].status != 0) {\n            return true;\n        } else {\n            return false;\n        }\n    }\n\n    function changeOwner(\n        string memory _id,\n        string memory _owner\n    ) public returns (string memory) {\n        require(isProductRegistered(_id));\n        productMap[_id].owner = _owner;\n        return \"owner changed\";\n    }\n\n    function getProductById(\n        string memory productId\n    ) public view returns (Product memory productDetails) {\n        Product memory p = productMap[productId];\n        return (p);\n    }\n\n    function getProductCounts() public view returns (uint256) {\n        return ProductIdList.length;\n    }\n}\n",
  "sourcePath": "/Users/md.abidkhan/Documents/abid/official/hedera/code/hedera-crud-example/contracts/ProductContract.sol",
  "compiler": {
    "name": "solc",
    "version": "0.8.19+commit.7dd6d404.Emscripten.clang"
  },
  "schemaVersion": "3.4.13",
  "updatedAt": "2023-03-27T04:38:05.814Z",
  "devdoc": {
    "kind": "dev",
    "methods": {},
    "version": 1
  },
  "userdoc": {
    "kind": "user",
    "methods": {},
    "version": 1
  }
}