{
  "contractName": "ProductContract",
  "abi": [
    {
      "inputs": [
        {
          "internalType": "string",
          "name": "",
          "type": "string"
        }
      ],
      "name": "productMap",
      "outputs": [
        {
          "internalType": "string",
          "name": "id",
          "type": "string"
        },
        {
          "internalType": "string",
          "name": "name",
          "type": "string"
        },
        {
          "internalType": "string",
          "name": "color",
          "type": "string"
        },
        {
          "internalType": "string",
          "name": "owner",
          "type": "string"
        },
        {
          "internalType": "uint8",
          "name": "status",
          "type": "uint8"
        }
      ],
      "stateMutability": "view",
      "type": "function"
    },
    {
      "inputs": [
        {
          "internalType": "string",
          "name": "_id",
          "type": "string"
        },
        {
          "internalType": "string",
          "name": "_name",
          "type": "string"
        },
        {
          "internalType": "string",
          "name": "_color",
          "type": "string"
        },
        {
          "internalType": "string",
          "name": "_owner",
          "type": "string"
        }
      ],
      "name": "addProduct",
      "outputs": [],
      "stateMutability": "nonpayable",
      "type": "function"
    },
    {
      "inputs": [],
      "name": "getAllProducts",
      "outputs": [
        {
          "components": [
            {
              "internalType": "string",
              "name": "id",
              "type": "string"
            },
            {
              "internalType": "string",
              "name": "name",
              "type": "string"
            },
            {
              "internalType": "string",
              "name": "color",
              "type": "string"
            },
            {
              "internalType": "string",
              "name": "owner",
              "type": "string"
            },
            {
              "internalType": "uint8",
              "name": "status",
              "type": "uint8"
            }
          ],
          "internalType": "struct ProductContract.Product[]",
          "name": "",
          "type": "tuple[]"
        }
      ],
      "stateMutability": "view",
      "type": "function"
    },
    {
      "inputs": [
        {
          "internalType": "string",
          "name": "_id",
          "type": "string"
        }
      ],
      "name": "isProductRegistered",
      "outputs": [
        {
          "internalType": "bool",
          "name": "",
          "type": "bool"
        }
      ],
      "stateMutability": "view",
      "type": "function"
    },
    {
      "inputs": [
        {
          "internalType": "string",
          "name": "_id",
          "type": "string"
        },
        {
          "internalType": "string",
          "name": "_owner",
          "type": "string"
        }
      ],
      "name": "changeOwner",
      "outputs": [
        {
          "internalType": "string",
          "name": "",
          "type": "string"
        }
      ],
      "stateMutability": "nonpayable",
      "type": "function"
    },
    {
      "inputs": [
        {
          "internalType": "string",
          "name": "productId",
          "type": "string"
        }
      ],
      "name": "getProductById",
      "outputs": [
        {
          "components": [
            {
              "internalType": "string",
              "name": "id",
              "type": "string"
            },
            {
              "internalType": "string",
              "name": "name",
              "type": "string"
            },
            {
              "internalType": "string",
              "name": "color",
              "type": "string"
            },
            {
              "internalType": "string",
              "name": "owner",
              "type": "string"
            },
            {
              "internalType": "uint8",
              "name": "status",
              "type": "uint8"
            }
          ],
          "internalType": "struct ProductContract.Product",
          "name": "pro",
          "type": "tuple"
        }
      ],
      "stateMutability": "view",
      "type": "function"
    },
    {
      "inputs": [],
      "name": "getProductCounts",
      "outputs": [
        {
          "internalType": "uint256",
          "name": "",
          "type": "uint256"
        }
      ],
      "stateMutability": "view",
      "type": "function"
    }
  ],
  "bytecode": "0x608060405234801561001057600080fd5b506117cc806100206000396000f3fe608060405234801561001057600080fd5b506004361061007d5760003560e01c8063531c5de51161005b578063531c5de514610100578063be837cdd14610134578063d35e5d9514610164578063fde74e81146101825761007d565b806302ee3a52146100825780631e764d45146100a05780632352d4aa146100d0575b600080fd5b61008a61019e565b6040516100979190610e63565b60405180910390f35b6100ba60048036038101906100b59190610fce565b610462565b6040516100c79190611032565b60405180910390f35b6100ea60048036038101906100e59190610fce565b6104af565b6040516100f791906110d8565b60405180910390f35b61011a60048036038101906101159190610fce565b610752565b60405161012b959493929190611153565b60405180910390f35b61014e600480360381019061014991906111c2565b6109cb565b60405161015b919061123a565b60405180910390f35b61016c610a4c565b6040516101799190611275565b60405180910390f35b61019c60048036038101906101979190611290565b610a58565b005b60606002805480602002602001604051908101604052809291908181526020016000905b8282101561045957838290600052602060002090600502016040518060a00160405290816000820180546101f590611396565b80601f016020809104026020016040519081016040528092919081815260200182805461022190611396565b801561026e5780601f106102435761010080835404028352916020019161026e565b820191906000526020600020905b81548152906001019060200180831161025157829003601f168201915b5050505050815260200160018201805461028790611396565b80601f01602080910402602001604051908101604052809291908181526020018280546102b390611396565b80156103005780601f106102d557610100808354040283529160200191610300565b820191906000526020600020905b8154815290600101906020018083116102e357829003601f168201915b5050505050815260200160028201805461031990611396565b80601f016020809104026020016040519081016040528092919081815260200182805461034590611396565b80156103925780601f1061036757610100808354040283529160200191610392565b820191906000526020600020905b81548152906001019060200180831161037557829003601f168201915b505050505081526020016003820180546103ab90611396565b80601f01602080910402602001604051908101604052809291908181526020018280546103d790611396565b80156104245780601f106103f957610100808354040283529160200191610424565b820191906000526020600020905b81548152906001019060200180831161040757829003601f168201915b505050505081526020016004820160009054906101000a900460ff1660ff1660ff1681525050815260200190600101906101c2565b50505050905090565b6000806001836040516104759190611403565b908152602001604051809103902060040160009054906101000a900460ff1660ff16146104a557600190506104aa565b600090505b919050565b6104b7610c38565b60006001836040516104c99190611403565b90815260200160405180910390206040518060a00160405290816000820180546104f290611396565b80601f016020809104026020016040519081016040528092919081815260200182805461051e90611396565b801561056b5780601f106105405761010080835404028352916020019161056b565b820191906000526020600020905b81548152906001019060200180831161054e57829003601f168201915b5050505050815260200160018201805461058490611396565b80601f01602080910402602001604051908101604052809291908181526020018280546105b090611396565b80156105fd5780601f106105d2576101008083540402835291602001916105fd565b820191906000526020600020905b8154815290600101906020018083116105e057829003601f168201915b5050505050815260200160028201805461061690611396565b80601f016020809104026020016040519081016040528092919081815260200182805461064290611396565b801561068f5780601f106106645761010080835404028352916020019161068f565b820191906000526020600020905b81548152906001019060200180831161067257829003601f168201915b505050505081526020016003820180546106a890611396565b80601f01602080910402602001604051908101604052809291908181526020018280546106d490611396565b80156107215780601f106106f657610100808354040283529160200191610721565b820191906000526020600020905b81548152906001019060200180831161070457829003601f168201915b505050505081526020016004820160009054906101000a900460ff1660ff1660ff1681525050905080915050919050565b60018180516020810182018051848252602083016020850120818352809550505050505060009150905080600001805461078b90611396565b80601f01602080910402602001604051908101604052809291908181526020018280546107b790611396565b80156108045780601f106107d957610100808354040283529160200191610804565b820191906000526020600020905b8154815290600101906020018083116107e757829003601f168201915b50505050509080600101805461081990611396565b80601f016020809104026020016040519081016040528092919081815260200182805461084590611396565b80156108925780601f1061086757610100808354040283529160200191610892565b820191906000526020600020905b81548152906001019060200180831161087557829003601f168201915b5050505050908060020180546108a790611396565b80601f01602080910402602001604051908101604052809291908181526020018280546108d390611396565b80156109205780601f106108f557610100808354040283529160200191610920565b820191906000526020600020905b81548152906001019060200180831161090357829003601f168201915b50505050509080600301805461093590611396565b80601f016020809104026020016040519081016040528092919081815260200182805461096190611396565b80156109ae5780601f10610983576101008083540402835291602001916109ae565b820191906000526020600020905b81548152906001019060200180831161099157829003601f168201915b5050505050908060040160009054906101000a900460ff16905085565b60606109d683610462565b6109df57600080fd5b816001846040516109f09190611403565b90815260200160405180910390206003019081610a0d91906115c6565b506040518060400160405280600d81526020017f6f776e6572206368616e67656400000000000000000000000000000000000000815250905092915050565b60008080549050905090565b610a6184610462565b15610a6b57600080fd5b6040518060a00160405280858152602001848152602001838152602001828152602001600160ff16815250600185604051610aa69190611403565b90815260200160405180910390206000820151816000019081610ac991906115c6565b506020820151816001019081610adf91906115c6565b506040820151816002019081610af591906115c6565b506060820151816003019081610b0b91906115c6565b5060808201518160040160006101000a81548160ff021916908360ff160217905550905050600084908060018154018082558091505060019003906000526020600020016000909190919091509081610b6491906115c6565b506002600185604051610b779190611403565b9081526020016040518091039020908060018154018082558091505060019003906000526020600020906005020160009091909190915060008201816000019081610bc291906116ae565b5060018201816001019081610bd791906116ae565b5060028201816002019081610bec91906116ae565b5060038201816003019081610c0191906116ae565b506004820160009054906101000a900460ff168160040160006101000a81548160ff021916908360ff160217905550505050505050565b6040518060a0016040528060608152602001606081526020016060815260200160608152602001600060ff1681525090565b600081519050919050565b600082825260208201905092915050565b6000819050602082019050919050565b600081519050919050565b600082825260208201905092915050565b60005b83811015610cd0578082015181840152602081019050610cb5565b60008484015250505050565b6000601f19601f8301169050919050565b6000610cf882610c96565b610d028185610ca1565b9350610d12818560208601610cb2565b610d1b81610cdc565b840191505092915050565b600060ff82169050919050565b610d3c81610d26565b82525050565b600060a0830160008301518482036000860152610d5f8282610ced565b91505060208301518482036020860152610d798282610ced565b91505060408301518482036040860152610d938282610ced565b91505060608301518482036060860152610dad8282610ced565b9150506080830151610dc26080860182610d33565b508091505092915050565b6000610dd98383610d42565b905092915050565b6000602082019050919050565b6000610df982610c6a565b610e038185610c75565b935083602082028501610e1585610c86565b8060005b85811015610e515784840389528151610e328582610dcd565b9450610e3d83610de1565b925060208a01995050600181019050610e19565b50829750879550505050505092915050565b60006020820190508181036000830152610e7d8184610dee565b905092915050565b6000604051905090565b600080fd5b600080fd5b600080fd5b600080fd5b7f4e487b7100000000000000000000000000000000000000000000000000000000600052604160045260246000fd5b610edb82610cdc565b810181811067ffffffffffffffff82111715610efa57610ef9610ea3565b5b80604052505050565b6000610f0d610e85565b9050610f198282610ed2565b919050565b600067ffffffffffffffff821115610f3957610f38610ea3565b5b610f4282610cdc565b9050602081019050919050565b82818337600083830152505050565b6000610f71610f6c84610f1e565b610f03565b905082815260208101848484011115610f8d57610f8c610e9e565b5b610f98848285610f4f565b509392505050565b600082601f830112610fb557610fb4610e99565b5b8135610fc5848260208601610f5e565b91505092915050565b600060208284031215610fe457610fe3610e8f565b5b600082013567ffffffffffffffff81111561100257611001610e94565b5b61100e84828501610fa0565b91505092915050565b60008115159050919050565b61102c81611017565b82525050565b60006020820190506110476000830184611023565b92915050565b600060a083016000830151848203600086015261106a8282610ced565b915050602083015184820360208601526110848282610ced565b9150506040830151848203604086015261109e8282610ced565b915050606083015184820360608601526110b88282610ced565b91505060808301516110cd6080860182610d33565b508091505092915050565b600060208201905081810360008301526110f2818461104d565b905092915050565b600082825260208201905092915050565b600061111682610c96565b61112081856110fa565b9350611130818560208601610cb2565b61113981610cdc565b840191505092915050565b61114d81610d26565b82525050565b600060a082019050818103600083015261116d818861110b565b90508181036020830152611181818761110b565b90508181036040830152611195818661110b565b905081810360608301526111a9818561110b565b90506111b86080830184611144565b9695505050505050565b600080604083850312156111d9576111d8610e8f565b5b600083013567ffffffffffffffff8111156111f7576111f6610e94565b5b61120385828601610fa0565b925050602083013567ffffffffffffffff81111561122457611223610e94565b5b61123085828601610fa0565b9150509250929050565b60006020820190508181036000830152611254818461110b565b905092915050565b6000819050919050565b61126f8161125c565b82525050565b600060208201905061128a6000830184611266565b92915050565b600080600080608085870312156112aa576112a9610e8f565b5b600085013567ffffffffffffffff8111156112c8576112c7610e94565b5b6112d487828801610fa0565b945050602085013567ffffffffffffffff8111156112f5576112f4610e94565b5b61130187828801610fa0565b935050604085013567ffffffffffffffff81111561132257611321610e94565b5b61132e87828801610fa0565b925050606085013567ffffffffffffffff81111561134f5761134e610e94565b5b61135b87828801610fa0565b91505092959194509250565b7f4e487b7100000000000000000000000000000000000000000000000000000000600052602260045260246000fd5b600060028204905060018216806113ae57607f821691505b6020821081036113c1576113c0611367565b5b50919050565b600081905092915050565b60006113dd82610c96565b6113e781856113c7565b93506113f7818560208601610cb2565b80840191505092915050565b600061140f82846113d2565b915081905092915050565b60008190508160005260206000209050919050565b60006020601f8301049050919050565b600082821b905092915050565b60006008830261147c7fffffffffffffffffffffffffffffffffffffffffffffffffffffffffffffffff8261143f565b611486868361143f565b95508019841693508086168417925050509392505050565b6000819050919050565b60006114c36114be6114b98461125c565b61149e565b61125c565b9050919050565b6000819050919050565b6114dd836114a8565b6114f16114e9826114ca565b84845461144c565b825550505050565b600090565b6115066114f9565b6115118184846114d4565b505050565b5b818110156115355761152a6000826114fe565b600181019050611517565b5050565b601f82111561157a5761154b8161141a565b6115548461142f565b81016020851015611563578190505b61157761156f8561142f565b830182611516565b50505b505050565b600082821c905092915050565b600061159d6000198460080261157f565b1980831691505092915050565b60006115b6838361158c565b9150826002028217905092915050565b6115cf82610c96565b67ffffffffffffffff8111156115e8576115e7610ea3565b5b6115f28254611396565b6115fd828285611539565b600060209050601f831160018114611630576000841561161e578287015190505b61162885826115aa565b865550611690565b601f19841661163e8661141a565b60005b8281101561166657848901518255600182019150602085019450602081019050611641565b86831015611683578489015161167f601f89168261158c565b8355505b6001600288020188555050505b505050505050565b6000815490506116a781611396565b9050919050565b8181036116bc575050611794565b6116c582611698565b67ffffffffffffffff8111156116de576116dd610ea3565b5b6116e88254611396565b6116f3828285611539565b6000601f8311600181146117225760008415611710578287015490505b61171a85826115aa565b86555061178d565b601f1984166117308761141a565b965061173b8661141a565b60005b828110156117635784890154825560018201915060018501945060208101905061173e565b86831015611780578489015461177c601f89168261158c565b8355505b6001600288020188555050505b5050505050505b56fea2646970667358221220cd57d4d9a7274dacfda2b14d6f78371c0d14ff9e2b1d00e1d31172268cd822ec64736f6c63430008130033",
  "immutableReferences": {},
  "source": "// SPDX-License-Identifier: UNLICENSED\npragma solidity ^0.8.10;\n\ncontract ProductContract {\n    struct Product {\n        string id;\n        string name;\n        string color;\n        string owner;\n        uint8 status; //1-active,0-Inactive,\n    }\n\n    string[] ProductIdList;\n    mapping(string => Product) public productMap;\n    // address public owner;\n    Product[] product;\n\n    // constructor() {\n    //     // owner = msg.sender;\n    // }\n\n    // modifier isOwner(address _owner) {\n    //     require(owner == _owner, \"Not a owner\");\n    //     _;\n    // }\n\n    function addProduct(\n        string memory _id,\n        string memory _name,\n        string memory _color,\n        string memory _owner\n    ) public {\n        require(!isProductRegistered(_id));\n        productMap[_id] = Product(_id, _name, _color, _owner, 1);\n        ProductIdList.push(_id);\n        product.push(productMap[_id]);\n    }\n\n    function getAllProducts() public view returns (Product[] memory) {\n        return product;\n    }\n\n    function isProductRegistered(string memory _id) public view returns (bool) {\n        if (productMap[_id].status != 0) {\n            return true;\n        } else {\n            return false;\n        }\n    }\n\n    function changeOwner(\n        string memory _id,\n        string memory _owner\n    ) public returns (string memory) {\n        require(isProductRegistered(_id));\n        productMap[_id].owner = _owner;\n        return \"owner changed\";\n    }\n\n    // function getProductDetails(\n    //     string memory _id\n    // ) public view returns (string memory) {\n    //     require(isProductRegistered(_id));\n    //     string memory _product = productMap[_id].owner;\n    //     return _product;\n    // }\n\n        function getProductById(string memory productId)public view returns (Product memory pro){\n        Product memory p = productMap[productId];\n        return (p);\n    }\n\n    function getProductCounts() public view returns (uint256) {\n        return ProductIdList.length;\n    }\n}\n",
  "sourcePath": "/Users/md.abidkhan/Documents/abid/official/hedera/code/hedera-crud-example/contracts/ProductContract.sol",
  "compiler": {
    "name": "solc",
    "version": "0.8.19+commit.7dd6d404.Emscripten.clang"
  },
  "schemaVersion": "3.4.13",
  "updatedAt": "2023-03-24T04:06:05.139Z",
  "devdoc": {
    "kind": "dev",
    "methods": {},
    "version": 1
  },
  "userdoc": {
    "kind": "user",
    "methods": {},
    "version": 1
  }
}